S01400005761746572204865617465722E7372656394
S11300000C942A000C9437090C944A090C945D0949
S11300100C9499090C948C0B0C9447000C94730C5D
S11300200C94C40C0C941C0C0C940F0B0C94C20A6E
S11300300C9447000C9447000C9447000C94470020
S11300400C9497000C9447000C9447000C944700C0
S11300500C94470011241FBECFE5D8E0DEBFCDBF0E
S113006011E0A0E6B0E0E2E7FBE102C005900D92EA
S1130070AC38B107D9F721E0ACE8B1E001C01D927A
S1130080A13EB207E1F70E9415050C94B70D0C943C
S11300900000329A319A30983E9A3F983D9A81E016
S11300A00895379A81E00895339A81E00895803263
S11300B040F497B1907E97B997B1892B87B981E0C5
S11300C0089582E00895883088F4359890B79F7138
S11300D090BF90B740E2849F90011124292B20BF48
S11300E0811101C0369A359A81E0089582E008951D
S11300F024B1229526952695237030E0FC013183A6
S1130100208345B150E0440F551F440F551F242B45
S1130110352B3183208381E00895009731F090934B
S11301208D0180938C0181E0089580E008951F92F1
S11301300F920FB60F9211242F933F934F935F9317
S11301406F937F938F939F93AF93BF93EF93FF939B
S1130150E0918C01F0918D01309709F00995FF91A0
S1130160EF91BF91AF919F918F917F916F915F912B
S11301704F913F912F910F900FBE0F901F901895A4
S113018087EB8ABB84E18BBB80E00895843008F060
S11301906FC0683008F06EC0423008F06DC0813026
S11301A0F9F030F08230A1F1833009F449C066C01F
S11301B02AB381E090E0062E02C0880F991F0A94AA
S11301C0E2F7809582238ABB2AB3842F90E002C091
S11301D0880F991F6A95E2F7822B8ABB81E0089504
S11301E087B321E030E0062E02C0220F331F0A94A9
S11301F0E2F72095282327BB27B3842F90E002C081
S1130200880F991F6A95E2F7822B87BB81E00895D6
S113021084B321E030E0062E02C0220F331F0A947B
S1130220E2F72095282324BB24B3842F90E002C056
S1130230880F991F6A95E2F7822B84BB81E00895A9
S113024081B321E030E0062E02C0220F331F0A944E
S1130250E2F72095282321BB21B3842F90E002C02C
S1130260880F991F6A95E2F7822B81BB81E008957C
S113027082E0089582E0089582E0089581E008957F
S1130280843008F06FC0683008F06EC0423008F067
S11302906DC08130F9F030F08230A1F1833009F47F
S11302A049C066C02BB381E090E0062E02C0880FDF
S11302B0991F0A94E2F7809582238BBB2BB3842F7A
S11302C090E002C0880F991F6A95E2F7822B8BBBDE
S11302D081E0089588B321E030E0062E02C0220FA9
S11302E0331F0A94E2F72095282328BB28B3842FD0
S11302F090E002C0880F991F6A95E2F7822B88BBB1
S113030081E0089585B321E030E0062E02C0220F7B
S1130310331F0A94E2F72095282325BB25B3842FA5
S113032090E002C0880F991F6A95E2F7822B85BB83
S113033081E0089582B321E030E0062E02C0220F4E
S1130340331F0A94E2F72095282322BB22B3842F7B
S113035090E002C0880F991F6A95E2F7822B82BB56
S113036081E0089582E0089582E0089582E008958E
S113037081E0089541155105E1F18430E0F56830DC
S1130380E0F5813091F028F08230D9F0833029F102
S113039036C089B390E002C0959587956A95E2F7D7
S11303A08170FA01808381E0089586B390E002C0F1
S11303B0959587956A95E2F78170FA01808381E0CB
S11303C0089583B390E002C0959587956A95E2F706
S11303D08170FA01808381E0089580B390E002C0C7
S11303E0959587956A95E2F78170FA01808381E09B
S11303F0089583E0089582E0089582E0089581E0FD
S113040008958430D0F56830D0F5813091F028F02B
S11304108230D9F0833029F134C02BB381E090E0ED
S113042002C0880F991F6A95E2F782278BBB81E08F
S1130430089528B381E090E002C0880F991F6A955F
S1130440E2F7822788BB81E0089525B381E090E03C
S113045002C0880F991F6A95E2F7822785BB81E065
S1130460089522B381E090E002C0880F991F6A9535
S1130470E2F7822782BB81E0089582E0089582E05A
S1130480089581E00895E199FECF8EBBE09A8DB383
S1130490FB01808381E00895E199FECF8EBBE09A51
S11304A08DB3861719F06DBBE29AE19A81E0089545
S11304B0FC018081813031F58BB780648BBF8181F1
S11304C0813059F028F0823081F08330B1F021C0BE
S11304D085B78C7F85BF80E01FC085B7816085BFED
S11304E085B78D7F85BF80E017C085B78E7F85BFB8
S11304F085B7826085BF80E00FC085B7836085BF04
S113050080E00AC0811107C08BB78F7B8BBF80E06E
S113051003C082E001C080E09281913011F59BB765
S113052090689BBF9381913051F028F0923071F024
S1130530933099F01CC095B7937F95BF19C095B7B8
S1130540946095BF95B7977F95BF12C095B79B7F71
S113055095BF95B7986095BF0BC095B79C6095BF44
S113056007C0911105C09BB79F779BBF01C082E074
S11305709481913089F49BB790629BBF95819230AE
S113058019F0933029F00EC094B79F7B94BF08955F
S113059094B7906494BF0895911105C09BB79F7D53
S11305A09BBF089582E00895811105C08BB78064D4
S11305B08BBF80E00895813029F48BB780688BBFAE
S11305C080E00895823029F48BB780628BBF80E08D
S11305D0089582E008959FB79F779FBF81E09111AE
S11305E001C080E008958FB780688FBF81E00895CF
S11305F041E064E081E00E94C60040E064E081E004
S11306000E94400141E065E081E00E94C60040E0B4
S113061065E081E00E94400181E0089541E064E0EA
S113062081E00E94400181E0089540E064E081E0BF
S11306300E94400181E0089541E065E081E00E946C
S1130640400181E0089540E065E081E00E944001BE
S113065081E008951F93CF93DF931F92CDB7DEB748
S1130660182F40E062E080E00E94400140E061E039
S113067080E00E944001183299F5AE014F5F5F4F50
S113068063E080E00E94BA018981811129C040E0C1
S113069067E00E94400140E066E080E00E94400183
S11306A041E065E080E00E94400140E064E080E0D9
S11306B00E94400141E061E080E00E94400181EE3F
S11306C094E00197F1F700C0000040E061E080E0B1
S11306D00E94400181EE94E00197F1F700C0000010
S11306E0412F441F4427441F67E080E00E944001DB
S11306F016FB442740F966E080E00E94400115FBA8
S1130700442740F965E080E00E94400114FB44273F
S113071040F964E080E00E94400141E061E080E053
S11307200E94400181EE94E00197F1F700C00000BF
S113073040E061E080E00E94400181EE94E0019796
S1130740F1F700C0000013FB442740F967E080E0A4
S11307500E94400112FB442740F966E080E00E94B9
S1130760400111FB442740F965E080E00E9440010C
S1130770412F417064E080E00E94400141E061E06B
S113078080E00E94400181EE94E00197F1F700C0FF
S1130790000040E061E080E00E94400181EE94E0CE
S11307A00197F1F700C0000080E00F90DF91CF9136
S11307B01F91089541E063E080E00E94C60041E09B
S11307C062E080E00E94C60041E061E080E00E94B7
S11307D0C60041E067E080E00E94C60041E066E0B8
S11307E080E00E94C60041E065E080E00E94C6000F
S11307F041E064E080E00E94C6008BE49DE1019743
S1130800F1F700C0000040E063E080E00E94400196
S113081088E20E942A0385E196E20197F1F700C07D
S1130820000085E196E20197F1F700C0000040E086
S113083063E080E00E9440018FE00E942A0385E18A
S113084096E20197F1F700C0000040E063E080E029
S11308500E94400181E00E942A038EE791E0019703
S1130860F1F7000040E063E080E00E94400186E090
S11308700E942A0381E00895CF93C82F40E063E0EB
S113088080E00E9440018C2F0E942A0380E0CF91D7
S11308900895CF93DF93FC012081222361F0EC01C2
S11308A041E063E080E00E94400189910E942A03B4
S11308B088818111F5CF80E0DF91CF9108954F9227
S11308C05F926F927F928F929F92AF92BF92CF92DC
S11308D0DF92EF92FF92CF934B015C01992384F452
S11308E041E063E080E00E9440018DE20E942A031F
S11308F0B094A09490948094811C911CA11CB11C70
S113090081149104A104B10409F453C0C0E0C12CC2
S1130910D12C76010F2EFAE04F2E512C612C712C24
S1130920F02DCC0CDD1CEE1CFF1CD701C601880F7A
S1130930991FAA1FBB1F880F991FAA1FBB1FC80E90
S1130940D91EEA1EFB1EC501B401A30192010E9437
S1130950890DC60ED11CE11CF11C822E932EA42EEF
S1130960B52ECF5F81149104A104B104D1F6CC2338
S113097001F10F2EFAE04F2E512C612C712CF02D29
S113098041E063E080E00E944001C701B601A30199
S113099092010E94890D822E932EA42EB52E80E3FF
S11309A0860F0E942A03C82CD92CEA2CFB2CC15098
S11309B039F780E0CF91FF90EF90DF90CF90BF9018
S11309C0AF909F908F907F906F905F904F9008951D
S11309D0CF9340E063E080E00E944001C82F81E0B3
S11309E00E942A038C2FCF91089541E060E081E0BA
S11309F00E94C60040E060E081E00E94400181E086
S1130A00089541E060E081E00E94400181E00895A2
S1130A1060E081E00E94010281E0089540E060E02E
S1130A2081E00E94400181E008950E9414078091B2
S1130A30DE01813021F030F0823039F0FACF0E94AB
S1130A403C08F5CF0E942309F2CF0E94AE08EFCFF5
S1130A50EF92FF920F931F93CF93DF93EC017C01EE
S1130A6086E2E80EF11C8E0141E0698188810E94D2
S1130A70C60041E06B818A810E94C60041E06D811D
S1130A808C810E94C60041E06F818E810E94C60065
S1130A9041E0698588850E94C60041E06B858A85AE
S1130AA00E94C60041E06D858C850E94C6008E853B
S1130AB08E3131F06F856E3119F041E00E94C6002D
S1130AC0F80180898E3131F061896E3119F041E08D
S1130AD00E94C6006396CE15DF0529F680E0DF91FB
S1130AE0CF911F910F91FF90EF9008957F928F9275
S1130AF09F92AF92BF92CF92DF92EF92FF920F93A9
S1130B001F93CF93DF93EC01162F8A89843139F434
S1130B10E62FF0E0EB56FF4F1081109507C08A30A6
S1130B2029F4E62FF0E0EB56FF4F1081412F41707E
S1130B30698188810E944001B82E11FB442740F945
S1130B406B818A810E944001782E12FB442740F970
S1130B506D818C810E944001082F13FB442740F9CA
S1130B606F818E810E94400190E4899F600111246D
S1130B7014FB442740F9698588850E944001D82ADE
S1130B800D2C000CEE08FF08D701C6018B294C017F
S1130B905D0115FB442740F96B858A850E9440015D
S1130BA0C82ED12CDC2CCC24DD0CDD0C0D2C000C3F
S1130BB0EE08FF08C828D928EA28FB2816FB442792
S1130BC040F96D858C850E944001472D50E0440F0B
S1130BD0551F440F551F90E1099F90011124422B8A
S1130BE0532B052E000C660B770B90E0982F88276B
S1130BF09295907F092E000CAA0BBB0BC82AD92A08
S1130C00EA2AFB2A4C295D296E297F2981E0453592
S1130C1055416105710509F080E0DF91CF911F9185
S1130C200F91FF90EF90DF90CF90BF90AF909F9087
S1130C308F907F900895FC0186858E3191F06785B1
S1130C406E3189F09289943129F441E00E94400187
S1130C5081E008959A3049F440E00E94400181E027
S1130C60089580E0089580E0089581E00895FC01EE
S1130C7086858E3191F067856E3189F09289943141
S1130C8029F440E00E94400181E008959A3049F43B
S1130C9041E00E94400181E0089580E0089580E0F1
S1130CA0089581E00895CF93DF93D82F86E690E0EE
S1130CB00E943706CDECDC9FC12D1124C695C69544
S1130CC0C6959C2F990F892F880F880F890F6D2F38
S1130CD0681B89E790E00E94760589E790E00E940E
S1130CE01B0686E093E00197F1F700C0000089E756
S1130CF090E00E9437066C2F86E690E00E9476050D
S1130D0086E690E00E941B0682E191E00197F1F7EC
S1130D1000C00000DF91CF9108950F931F93CF93EC
S1130D20DF93EC018C01075F1F4F40E069818881EC
S1130D300E94C6004A81698188810E9440012396ED
S1130D40C017D10791F781E0DF91CF911F910F91E7
S1130D5008958091DA019091DB01019759F4809113
S1130D60DE01823039F481E08093DE011092DB01F0
S1130D701092DA010895CF93DF9300D0CDB7DEB798
S1130D80CE0101960E94600A29813A81E1ECF1E0EA
S1130D9085ED91E021933193E817F907D9F7109283
S1130DA0D90180E00F900F90DF91CF910895CF93F8
S1130DB0DF93EB01FC01449620E030E04191519136
S1130DC0240F351FE817F907C9F7ADECBCEC0E94F6
S1130DD0A80D969587959695879596958795998369
S1130DE0888381E0DF91CF910895AC012AE0E091FE
S1130DF0D901F0E0EE0FFF1FE40FF51F718360834C
S1130E0083EC99E00197F1F700C000009091D901BB
S1130E109F5F9A3019F09093D90102C01092D901C2
S1130E20215029F781E008950E94C00080E690E0F7
S1130E300E94580286E690E00E94280586E690E02B
S1130E400E94370689E790E00E9437068CE890E01C
S1130E500E948D060E94DA030E94F8020E94F504A3
S1130E600E94920A0E94D90B0E94670B0E94C40937
S1130E700E94EB0280E00E94D40281E00E94D4022E
S1130E8082E00E94D4020E94A20A0E94F90B0E94EE
S1130E907A0B0E94F3020E94A90A0E94030C0E948A
S1130EA0810B41E063E081E00E94C60041E064E020
S1130EB083E00E94C60041E065E083E00E94C60032
S1130EC041E067E083E00E94C6001092DE011092C8
S1130ED0D5011092D6010E94BB0680E80E943C0412
S1130EE085EA90E00E94490480EC0E943C048BEB6C
S1130EF090E00E9449042FED82E292E0215080406C
S1130F009040E1F700C0000080E80E943C0482EDBC
S1130F1090E00E94490480EC0E943C0484EE90E03E
S1130F200E9449042FE38DE093E0215080409040DB
S1130F30E1F700C000006FED71E080E090E00E94F6
S1130F4043028091DF018F3F31F090E09093C00124
S1130F508093BF0106C08CE390E09093C00180931E
S1130F60BF016091BF0180E090E00E944C0280E8E4
S1130F700E943C0486EF90E00E94490480EC0E94A9
S1130F803C048AE091E00E9449048CEC0E943C04F9
S1130F906091BF017091C00180E090E00E945F0405
S1130FA02FED83E994E0215080409040E1F700C0A8
S1130FB0000080E0089586E690E00E94370689E705
S1130FC090E00E94370608958091DE018130E9F4B3
S1130FD08091DC019091DD0105972091BF01309152
S1130FE0C00182179307A8F40E9408058091DC01D0
S1130FF09091DD0105962091BF013091C001281721
S1131000390738F40E940E0504C0823011F40E949E
S1131010DB0781E008958091DC019091DD0120914E
S1131020BF013091C001AC014B5F5F4F24173507FE
S113103090F405978217930738F40E9415030E94D1
S113104023030E940E0516C00E9415030E941C0370
S11310500E9401050FC005978217930758F40E9458
S11310600E030E94230348EE53E061E084EE97E010
S11310700E94B40A81E00895CF93DF9300D0CDB7E6
S1131080DEB786E690E00E941B06CE0101960E9420
S1131090600A69817A8181EC91E00E94F5066CED29
S11310A071E081EC91E00E94D70680E80E943C0444
S11310B08BE191E00E94490480EC0E943C048DE2A3
S11310C091E00E9449048DEC0E943C046091DC0193
S11310D07091DD0180E090E00E945F048091DC016A
S11310E00E9453060E940B088091D501813021F0A3
S11310F08091D601813061F582E08093DE01109207
S1131100D5011092D60180E80E943C0489EF90E05A
S11311100E94490480EC0E943C0489EF90E00E9404
S1131120490480E80E943C048FE391E00E94490452
S113113080EC0E943C0482E591E00E9449042FE97E
S113114086E891E0215080409040E1F700C0000023
S113115081E00F900F90DF91CF9108950E942303B7
S11311600E9415030E940E0580E80E943C0485E657
S113117091E00E94490480EC0E943C0488E791E0DD
S11311800E9449048DEC0E943C046091BF0170915F
S1131190C00180E090E00E945F048091BF010E9442
S11311A053062FE38DE093E0215080409040E1F717
S11311B000C000008091D5018130A9F48091BF0165
S11311C09091C0018B34910570F405969093C00101
S11311D08093BF010E9453061092D5018091D601DD
S11311E08823E1F022C08091D601813089F4809176
S11311F0BF019091C00184329105B8F00597909396
S1131200C0018093BF010E9453061092D60102C010
S113121081110BC08091D501811107C042E350E0D8
S113122061E089EA96E00E940E0C6091BF0180E0C3
S113123090E00E944C0281E00895AC98AD98AE987D
S1131240AF9A81E0089586E690E00E94370689E728
S113125090E00E9437060E94E8040E940E050E9456
S113126015030E9423030E941D0981E008951F9223
S11312700F920FB60F9211248F938091D501811193
S113128003C081E08093D5018F910F900FBE0F9022
S11312901F9018951F920F920FB60F9211248F93DF
S11312A08091D601811103C081E08093D6018F9192
S11312B00F900FBE0F901F9018951F920F920FB6AC
S11312C00F9211242F933F934F935F936F937F93C8
S11312D08F939F93AF93BF93EF93FF938091DE011E
S11312E0811111C081E08093DE016FED71E080E037
S11312F090E00E9443028091DF0190E09093C0014E
S11313008093BF0105C08150823010F41092DE0139
S1131310FF91EF91BF91AF919F918F917F916F91C9
S11313205F914F913F912F910F900FBE0F901F909F
S113133018951F920F920FB60F9211242F938F932B
S11313409F938091DE018150823090F480918E01D0
S113135090918F01019690938F0180938E0188382C
S1131360934131F481E090E09093DB018093DA01C2
S11313709F918F912F910F900FBE0F901F901895F2
S113138081E08093900108958F929F92AF92BF92D3
S1131390CF92DF92EF92FF92CF93DF9340E060E031
S11313A080E00E94C600B82E40E060E080E00E9429
S11313B04001D82F80E090E00E945700C82F0E947F
S11313C0D90B0E94F90B0E94030C85E090E00E9467
S11313D0630090E4899F600111240E945400D82A7C
S11313E00D2C000CEE08FF08D701C6018B294C0117
S11313F05D0141E050E062E081E590E00E940E0C66
S1131400C82ED12CDC2CCC24DD0CDD0C0D2C000CD6
S1131410EE08FF08C828D928EA28FB2880EC99E0C0
S11314200E948D00882E912C982C8824990C990C5C
S1131430990C990C092C000CAA08BB088C289D282F
S1131440AE28BF280E944900CD2ED12CCC0CDD1C27
S1131450CC0CDD1C90E1C99F90011124C22AD32A2F
S1131460A601DD0C660B770BC82ED12CDD24C694A7
S1131470D794C694D794CC240D2C000CEE08FF0806
S1131480C828D928EA28FB28C42AD52AE62AF72A14
S11314900E94F302E894E0F8A5E5CA16DA06E1042E
S11314A0F10411F080E001C081E0DF91CF91FF9061
S11314B0EF90DF90CF90BF90AF909F908F90089562
S11314C0EF92FF921F93CF93DF9300D0CDB7DEB797
S11314D09C01909190019130C1F47901CE01019663
S11314E00E947800182F29813A81A2E1B3E10E9479
S11314F0A80D20E137E240E050E00E94670DF701BB
S1131500318320831092900101C010E081E01130FA
S113151009F080E00F900F90DF91CF911F91FF9021
S1131520EF90089583B78F7B83BF83B7886083BFB1
S11315308AEF8CBF83B7806183BF83B78F7D83BFFE
S113154081E0089589B7826089BF0E94F30281E037
S1131550089583B7816083BF83B7826083BF83B7F5
S11315608B7F83BF81E00895E62FF0E0EE0FFF1F2D
S1131570E754FE4F918380835093940140939301E9
S113158081E008951F920F920FB60F9211242F93AA
S11315903F934F935F936F937F938F939F93AF93F7
S11315A0BF93EF93FF938091B9019091BA01892B76
S11315B029F18091A5019091A601A091A701B09174
S11315C0A8010196A11DB11D8093A5019093A601C8
S11315D0A093A701B093A801892B8A2B8B2B71F4BC
S11315E013BEE091B901F091BA0109951092A501D9
S11315F01092A6011092A7011092A801FF91EF91F9
S1131600BF91AF919F918F917F916F915F914F9116
S11316103F912F910F900FBE0F901F9018951F921E
S11316200F920FB60F9211242F933F934F935F9312
S11316306F937F938F939F93AF93BF93EF93FF9396
S1131640E091BB01F091BC01309781F18091A1013F
S11316509091A201A091A301B091A4010196A11DB2
S1131660B11D8093A1019093A201A093A301B09313
S1131670A401409193015091940160E070E08417BB
S11316809507A607B70791F409958091AD0190914C
S1131690AE0101969093AE018093AD011092A10129
S11316A01092A2011092A3011092A401FF91EF9154
S11316B0BF91AF919F918F917F916F915F914F9166
S11316C03F912F910F900FBE0F901F90189585B5E5
S11316D08F7B85BD85B5886085BD82B5877F82BDDA
S11316E08AEF83BD85B5806185BD85B58F7D85BD58
S11316F081E0089589B7806889BF0E94F30281E080
S1131700089585B5816085BD85B5826085BD85B543
S11317108B7F85BD81E008951F920F920FB60F92C3
S113172011242F933F934F935F936F937F938F93E2
S11317309F93AF93BF93EF93FF938091AF019091E9
S1131740B001892B29F18091950190919601A09186
S11317509701B09198010196A11DB11D8093950147
S113176090939601A0939701B0939801892B8A2BAB
S11317708B2B71F415BCE091AF01F091B001099588
S1131780109295011092960110929701109298016F
S1131790FF91EF91BF91AF919F918F917F916F9145
S11317A05F914F913F912F910F900FBE0F901F901B
S11317B018958FB58E7F8FBD8FB58D7F8FBD8EB5FC
S11317C088608EBD8EB58F7E8EBD91E69BBD88EA06
S11317D08ABD99BD88BD8FB580648FBD8FB58F7765
S11317E08FBD8FB580618FBD8FB58F7D8FBD81E03B
S11317F0089589B7806189BF89B7886089BF0E94CD
S1131800F30281E008958EB581608EBD8EB582604D
S11318108EBD8EB58B7F8EBD81E00895E62FF0E0FE
S1131820EE0FFF1FED54FE4F91838083509392017E
S11318304093910181E008951F920F920FB60F9289
S113184011242F933F934F935F936F937F938F93C1
S11318509F93AF93BF93EF93FF938091B3019091C4
S1131860B401892B79F18091990190919A01A09109
S11318709B01B0919C01BC01CD016F5F7F4F8F4FE5
S11318809F4F6093990170939A0180939B01909369
S11318909C010E94060D25E93FEB46ED56E30E94AC
S11318A0010D81110FC01DBC1CBCE091B301F0916E
S11318B0B40109951092990110929A0110929B011A
S11318C010929C01FF91EF91BF91AF919F918F91E5
S11318D07F916F915F914F913F912F910F900FBE28
S11318E00F901F9018951F920F920FB60F9211240C
S11318F02F933F934F935F936F937F938F939F9314
S1131900AF93BF93EF93FF93E091B501F091B601CC
S1131910309749F180919F019091A0010196909395
S1131920A00180939F011092A9011092AA01109224
S1131930AB011092AC012091910130919201821778
S1131940930789F4099581E090E0A0E0B0E08093EA
S1131950A9019093AA01A093AB01B093AC0110929A
S1131960A00110929F01FF91EF91BF91AF919F91C0
S11319708F917F916F915F914F913F912F910F9034
S11319800FBE0F901F9018951F920F920FB60F92D3
S113199011242F933F934F935F936F937F938F9370
S11319A09F93AF93BF93EF93FF93E091B701F091AF
S11319B0B8013097A9F080919D0190919E01019604
S11319C090939E0180939D01209191013091920109
S11319D08217930729F4099510929E0110929D0194
S11319E0FF91EF91BF91AF919F918F917F916F91F3
S11319F05F914F913F912F910F900FBE0F901F90C9
S1131A0018950E94430D08F481E00895E89409C0F4
S1131A1097FB3EF490958095709561957F4F8F4F1D
S1131A209F4F9923A9F0F92F96E9BB279395F69533
S1131A30879577956795B795F111F8CFFAF4BB0FB1
S1131A4011F460FF1BC06F5F7F4F8F4F9F4F16C015
S1131A50882311F096E911C0772321F09EE8872F9F
S1131A60762F05C0662371F096E8862F70E060E05B
S1131A702AF09A95660F771F881FDAF7880F9695D4
S1131A80879597F90895990F0008550FAA0BE0E878
S1131A90FEEF16161706E807F907C0F0121613062C
S1131AA0E407F50798F0621B730B840B950B39F46C
S1131AB00A2661F0232B242B252B21F408950A26D2
S1131AC009F4A140A6958FEF811D811D0895A1E21F
S1131AD01A2EAA1BBB1BFD010DC0AA1FBB1FEE1FA4
S1131AE0FF1FA217B307E407F50720F0A21BB30BEF
S1131AF0E40BF50B661F771F881F991F1A9469F76B
S1131B0060957095809590959B01AC01BD01CF01C6
S1131B100895052E97FB1EF400940E94A00D57FD16
S1131B2007D00E94670D07FC03D04EF40C94A00D5F
S1131B3050954095309521953F4F4F4F5F4F0895F5
S1131B4090958095709561957F4F8F4F9F4F089525
S1131B50A29FB001B39FC001A39F700D811D1124EA
S1131B60911DB29F700D811D1124911D0895F8944B
S1051B70FFCFA1
S1131B72010301030103020002010202020302043F
S1131B820205020601061E1E0A02000201020202E8
S1131B920302040205020601071E1E0A03020003D1
S1131BA203000102003F065B4F666D7D077F6F777E
S1131BB27C395E797157656C636F6D6520746F2033
S1131BC2414D495420202020202000677261647511
S1131BD26174696F6E2050726F6A6563742020208D
S1131BE22000454C454354524943205741544552E1
S1131BF20909090048454154455220535953544553
S1131C024D09200909002020202020202020202006
S1131C12202020202020202020005341564544200B
S1131C2254656D703D2020204309004E4F524D41B2
S1131C324C204D4F4445204F4E20200900416374EF
S1131C4275616C2054656D703D202020204300573F
S1131C52656C636F6D6520746F2074686520202045
S1131C62200053657474696E67204D6F646520208B
S1131C72202020200053657474696E67204D6F64C0
S1131C8265204F6E202020004465736972656420CC
S10F1C9254656D703D20202043200000AC
S9030000FC
